{
  "_format": "hh-sol-artifact-1",
  "contractName": "Todo",
  "sourceName": "contracts/Todo.sol",
  "abi": [
    {
      "inputs": [
        {
          "internalType": "string",
          "name": "task",
          "type": "string"
        }
      ],
      "name": "addTask",
      "outputs": [],
      "stateMutability": "nonpayable",
      "type": "function"
    },
    {
      "inputs": [
        {
          "internalType": "uint256",
          "name": "index",
          "type": "uint256"
        }
      ],
      "name": "complited",
      "outputs": [],
      "stateMutability": "nonpayable",
      "type": "function"
    },
    {
      "inputs": [
        {
          "internalType": "uint256",
          "name": "",
          "type": "uint256"
        }
      ],
      "name": "list",
      "outputs": [
        {
          "internalType": "uint256",
          "name": "id",
          "type": "uint256"
        },
        {
          "internalType": "string",
          "name": "name",
          "type": "string"
        },
        {
          "internalType": "string",
          "name": "status",
          "type": "string"
        }
      ],
      "stateMutability": "view",
      "type": "function"
    },
    {
      "inputs": [
        {
          "internalType": "uint256",
          "name": "index",
          "type": "uint256"
        }
      ],
      "name": "rmvTask",
      "outputs": [],
      "stateMutability": "nonpayable",
      "type": "function"
    },
    {
      "inputs": [],
      "name": "showTask",
      "outputs": [
        {
          "components": [
            {
              "internalType": "uint256",
              "name": "id",
              "type": "uint256"
            },
            {
              "internalType": "string",
              "name": "name",
              "type": "string"
            },
            {
              "internalType": "string",
              "name": "status",
              "type": "string"
            }
          ],
          "internalType": "struct Todo.Task[]",
          "name": "",
          "type": "tuple[]"
        }
      ],
      "stateMutability": "view",
      "type": "function"
    }
  ],
  "bytecode": "0x608060405233600160006101000a81548173ffffffffffffffffffffffffffffffffffffffff021916908373ffffffffffffffffffffffffffffffffffffffff16021790555034801561005157600080fd5b50611242806100616000396000f3fe608060405234801561001057600080fd5b50600436106100575760003560e01c8063672385621461005c5780636fec170d1461007857806380c9419e14610094578063b405e617146100c6578063dcdec466146100e4575b600080fd5b61007660048036038101906100719190610974565b610100565b005b610092600480360381019061008d91906109f3565b61024b565b005b6100ae60048036038101906100a991906109f3565b6103eb565b6040516100bd93929190610aae565b60405180910390f35b6100ce610535565b6040516100db9190610c65565b60405180910390f35b6100fe60048036038101906100f991906109f3565b6106c2565b005b600160009054906101000a900473ffffffffffffffffffffffffffffffffffffffff1673ffffffffffffffffffffffffffffffffffffffff163373ffffffffffffffffffffffffffffffffffffffff1614610190576040517f08c379a000000000000000000000000000000000000000000000000000000000815260040161018790610cd3565b60405180910390fd5b6000604051806060016040528060008054905081526020018381526020016040518060400160405280600781526020017f50656e64696e6700000000000000000000000000000000000000000000000000815250815250908060018154018082558091505060019003906000526020600020906003020160009091909190915060008201518160000155602082015181600101908161022f9190610eff565b5060408201518160020190816102459190610eff565b50505050565b600160009054906101000a900473ffffffffffffffffffffffffffffffffffffffff1673ffffffffffffffffffffffffffffffffffffffff163373ffffffffffffffffffffffffffffffffffffffff16146102db576040517f08c379a00000000000000000000000000000000000000000000000000000000081526004016102d290610cd3565b60405180910390fd5b60008190505b60016000805490506102f39190611000565b8110156103e75760006001826103099190611034565b8154811061031a57610319611068565b5b90600052602060002090600302016000828154811061033c5761033b611068565b5b9060005260206000209060030201600082015481600001556001820181600101908161036891906110ad565b506002820181600201908161037d91906110ad565b50905050600080548061039357610392611195565b5b60019003818190600052602060002090600302016000808201600090556001820160006103c091906107bd565b6002820160006103d091906107bd565b5050905580806103df906111c4565b9150506102e1565b5050565b600081815481106103fb57600080fd5b906000526020600020906003020160009150905080600001549080600101805461042490610d22565b80601f016020809104026020016040519081016040528092919081815260200182805461045090610d22565b801561049d5780601f106104725761010080835404028352916020019161049d565b820191906000526020600020905b81548152906001019060200180831161048057829003601f168201915b5050505050908060020180546104b290610d22565b80601f01602080910402602001604051908101604052809291908181526020018280546104de90610d22565b801561052b5780601f106105005761010080835404028352916020019161052b565b820191906000526020600020905b81548152906001019060200180831161050e57829003601f168201915b5050505050905083565b60606000805480602002602001604051908101604052809291908181526020016000905b828210156106b957838290600052602060002090600302016040518060600160405290816000820154815260200160018201805461059690610d22565b80601f01602080910402602001604051908101604052809291908181526020018280546105c290610d22565b801561060f5780601f106105e45761010080835404028352916020019161060f565b820191906000526020600020905b8154815290600101906020018083116105f257829003601f168201915b5050505050815260200160028201805461062890610d22565b80601f016020809104026020016040519081016040528092919081815260200182805461065490610d22565b80156106a15780601f10610676576101008083540402835291602001916106a1565b820191906000526020600020905b81548152906001019060200180831161068457829003601f168201915b50505050508152505081526020019060010190610559565b50505050905090565b600160009054906101000a900473ffffffffffffffffffffffffffffffffffffffff1673ffffffffffffffffffffffffffffffffffffffff163373ffffffffffffffffffffffffffffffffffffffff1614610752576040517f08c379a000000000000000000000000000000000000000000000000000000000815260040161074990610cd3565b60405180910390fd5b6040518060400160405280600981526020017f436f6d706c6974656400000000000000000000000000000000000000000000008152506000828154811061079c5761079b611068565b5b906000526020600020906003020160020190816107b99190610eff565b5050565b5080546107c990610d22565b6000825580601f106107db57506107fa565b601f0160209004906000526020600020908101906107f991906107fd565b5b50565b5b808211156108165760008160009055506001016107fe565b5090565b6000604051905090565b600080fd5b600080fd5b600080fd5b600080fd5b6000601f19601f8301169050919050565b7f4e487b7100000000000000000000000000000000000000000000000000000000600052604160045260246000fd5b61088182610838565b810181811067ffffffffffffffff821117156108a05761089f610849565b5b80604052505050565b60006108b361081a565b90506108bf8282610878565b919050565b600067ffffffffffffffff8211156108df576108de610849565b5b6108e882610838565b9050602081019050919050565b82818337600083830152505050565b6000610917610912846108c4565b6108a9565b90508281526020810184848401111561093357610932610833565b5b61093e8482856108f5565b509392505050565b600082601f83011261095b5761095a61082e565b5b813561096b848260208601610904565b91505092915050565b60006020828403121561098a57610989610824565b5b600082013567ffffffffffffffff8111156109a8576109a7610829565b5b6109b484828501610946565b91505092915050565b6000819050919050565b6109d0816109bd565b81146109db57600080fd5b50565b6000813590506109ed816109c7565b92915050565b600060208284031215610a0957610a08610824565b5b6000610a17848285016109de565b91505092915050565b610a29816109bd565b82525050565b600081519050919050565b600082825260208201905092915050565b60005b83811015610a69578082015181840152602081019050610a4e565b60008484015250505050565b6000610a8082610a2f565b610a8a8185610a3a565b9350610a9a818560208601610a4b565b610aa381610838565b840191505092915050565b6000606082019050610ac36000830186610a20565b8181036020830152610ad58185610a75565b90508181036040830152610ae98184610a75565b9050949350505050565b600081519050919050565b600082825260208201905092915050565b6000819050602082019050919050565b610b28816109bd565b82525050565b600082825260208201905092915050565b6000610b4a82610a2f565b610b548185610b2e565b9350610b64818560208601610a4b565b610b6d81610838565b840191505092915050565b6000606083016000830151610b906000860182610b1f565b5060208301518482036020860152610ba88282610b3f565b91505060408301518482036040860152610bc28282610b3f565b9150508091505092915050565b6000610bdb8383610b78565b905092915050565b6000602082019050919050565b6000610bfb82610af3565b610c058185610afe565b935083602082028501610c1785610b0f565b8060005b85811015610c535784840389528151610c348582610bcf565b9450610c3f83610be3565b925060208a01995050600181019050610c1b565b50829750879550505050505092915050565b60006020820190508181036000830152610c7f8184610bf0565b905092915050565b7f4e6f74206f776e65720000000000000000000000000000000000000000000000600082015250565b6000610cbd600983610a3a565b9150610cc882610c87565b602082019050919050565b60006020820190508181036000830152610cec81610cb0565b9050919050565b7f4e487b7100000000000000000000000000000000000000000000000000000000600052602260045260246000fd5b60006002820490506001821680610d3a57607f821691505b602082108103610d4d57610d4c610cf3565b5b50919050565b60008190508160005260206000209050919050565b60006020601f8301049050919050565b600082821b905092915050565b600060088302610db57fffffffffffffffffffffffffffffffffffffffffffffffffffffffffffffffff82610d78565b610dbf8683610d78565b95508019841693508086168417925050509392505050565b6000819050919050565b6000610dfc610df7610df2846109bd565b610dd7565b6109bd565b9050919050565b6000819050919050565b610e1683610de1565b610e2a610e2282610e03565b848454610d85565b825550505050565b600090565b610e3f610e32565b610e4a818484610e0d565b505050565b5b81811015610e6e57610e63600082610e37565b600181019050610e50565b5050565b601f821115610eb357610e8481610d53565b610e8d84610d68565b81016020851015610e9c578190505b610eb0610ea885610d68565b830182610e4f565b50505b505050565b600082821c905092915050565b6000610ed660001984600802610eb8565b1980831691505092915050565b6000610eef8383610ec5565b9150826002028217905092915050565b610f0882610a2f565b67ffffffffffffffff811115610f2157610f20610849565b5b610f2b8254610d22565b610f36828285610e72565b600060209050601f831160018114610f695760008415610f57578287015190505b610f618582610ee3565b865550610fc9565b601f198416610f7786610d53565b60005b82811015610f9f57848901518255600182019150602085019450602081019050610f7a565b86831015610fbc5784890151610fb8601f891682610ec5565b8355505b6001600288020188555050505b505050505050565b7f4e487b7100000000000000000000000000000000000000000000000000000000600052601160045260246000fd5b600061100b826109bd565b9150611016836109bd565b925082820390508181111561102e5761102d610fd1565b5b92915050565b600061103f826109bd565b915061104a836109bd565b925082820190508082111561106257611061610fd1565b5b92915050565b7f4e487b7100000000000000000000000000000000000000000000000000000000600052603260045260246000fd5b6000815490506110a681610d22565b9050919050565b8181036110bb575050611193565b6110c482611097565b67ffffffffffffffff8111156110dd576110dc610849565b5b6110e78254610d22565b6110f2828285610e72565b6000601f831160018114611121576000841561110f578287015490505b6111198582610ee3565b86555061118c565b601f19841661112f87610d53565b965061113a86610d53565b60005b828110156111625784890154825560018201915060018501945060208101905061113d565b8683101561117f578489015461117b601f891682610ec5565b8355505b6001600288020188555050505b5050505050505b565b7f4e487b7100000000000000000000000000000000000000000000000000000000600052603160045260246000fd5b60006111cf826109bd565b91507fffffffffffffffffffffffffffffffffffffffffffffffffffffffffffffffff820361120157611200610fd1565b5b60018201905091905056fea2646970667358221220b748ab105c3b611daaa8bf1f14a92a951be36c460d3f6a75787613d12007c1e464736f6c63430008130033",
  "linkReferences": {},
  "deployedLinkReferences": {}
}